{
  "contractName": "ArtToken",
  "abi": [
    {
      "inputs": [],
      "stateMutability": "nonpayable",
      "type": "constructor"
    },
    {
      "anonymous": false,
      "inputs": [
        {
          "indexed": true,
          "internalType": "address",
          "name": "owner",
          "type": "address"
        },
        {
          "indexed": true,
          "internalType": "address",
          "name": "approved",
          "type": "address"
        },
        {
          "indexed": true,
          "internalType": "uint256",
          "name": "tokenId",
          "type": "uint256"
        }
      ],
      "name": "Approval",
      "type": "event"
    },
    {
      "anonymous": false,
      "inputs": [
        {
          "indexed": true,
          "internalType": "address",
          "name": "owner",
          "type": "address"
        },
        {
          "indexed": true,
          "internalType": "address",
          "name": "operator",
          "type": "address"
        },
        {
          "indexed": false,
          "internalType": "bool",
          "name": "approved",
          "type": "bool"
        }
      ],
      "name": "ApprovalForAll",
      "type": "event"
    },
    {
      "anonymous": false,
      "inputs": [
        {
          "indexed": true,
          "internalType": "address",
          "name": "from",
          "type": "address"
        },
        {
          "indexed": true,
          "internalType": "address",
          "name": "to",
          "type": "address"
        },
        {
          "indexed": true,
          "internalType": "uint256",
          "name": "tokenId",
          "type": "uint256"
        }
      ],
      "name": "Transfer",
      "type": "event"
    },
    {
      "inputs": [
        {
          "internalType": "uint256",
          "name": "",
          "type": "uint256"
        }
      ],
      "name": "Items",
      "outputs": [
        {
          "internalType": "uint256",
          "name": "id",
          "type": "uint256"
        },
        {
          "internalType": "address",
          "name": "creator",
          "type": "address"
        },
        {
          "internalType": "string",
          "name": "uri",
          "type": "string"
        }
      ],
      "stateMutability": "view",
      "type": "function",
      "constant": true
    },
    {
      "inputs": [
        {
          "internalType": "address",
          "name": "to",
          "type": "address"
        },
        {
          "internalType": "uint256",
          "name": "tokenId",
          "type": "uint256"
        }
      ],
      "name": "approve",
      "outputs": [],
      "stateMutability": "nonpayable",
      "type": "function"
    },
    {
      "inputs": [
        {
          "internalType": "address",
          "name": "owner",
          "type": "address"
        }
      ],
      "name": "balanceOf",
      "outputs": [
        {
          "internalType": "uint256",
          "name": "",
          "type": "uint256"
        }
      ],
      "stateMutability": "view",
      "type": "function",
      "constant": true
    },
    {
      "inputs": [
        {
          "internalType": "uint256",
          "name": "tokenId",
          "type": "uint256"
        }
      ],
      "name": "getApproved",
      "outputs": [
        {
          "internalType": "address",
          "name": "",
          "type": "address"
        }
      ],
      "stateMutability": "view",
      "type": "function",
      "constant": true
    },
    {
      "inputs": [
        {
          "internalType": "address",
          "name": "owner",
          "type": "address"
        },
        {
          "internalType": "address",
          "name": "operator",
          "type": "address"
        }
      ],
      "name": "isApprovedForAll",
      "outputs": [
        {
          "internalType": "bool",
          "name": "",
          "type": "bool"
        }
      ],
      "stateMutability": "view",
      "type": "function",
      "constant": true
    },
    {
      "inputs": [],
      "name": "marketplace",
      "outputs": [
        {
          "internalType": "address",
          "name": "",
          "type": "address"
        }
      ],
      "stateMutability": "view",
      "type": "function",
      "constant": true
    },
    {
      "inputs": [],
      "name": "name",
      "outputs": [
        {
          "internalType": "string",
          "name": "",
          "type": "string"
        }
      ],
      "stateMutability": "view",
      "type": "function",
      "constant": true
    },
    {
      "inputs": [
        {
          "internalType": "uint256",
          "name": "tokenId",
          "type": "uint256"
        }
      ],
      "name": "ownerOf",
      "outputs": [
        {
          "internalType": "address",
          "name": "",
          "type": "address"
        }
      ],
      "stateMutability": "view",
      "type": "function",
      "constant": true
    },
    {
      "inputs": [
        {
          "internalType": "address",
          "name": "from",
          "type": "address"
        },
        {
          "internalType": "address",
          "name": "to",
          "type": "address"
        },
        {
          "internalType": "uint256",
          "name": "tokenId",
          "type": "uint256"
        }
      ],
      "name": "safeTransferFrom",
      "outputs": [],
      "stateMutability": "nonpayable",
      "type": "function"
    },
    {
      "inputs": [
        {
          "internalType": "address",
          "name": "from",
          "type": "address"
        },
        {
          "internalType": "address",
          "name": "to",
          "type": "address"
        },
        {
          "internalType": "uint256",
          "name": "tokenId",
          "type": "uint256"
        },
        {
          "internalType": "bytes",
          "name": "_data",
          "type": "bytes"
        }
      ],
      "name": "safeTransferFrom",
      "outputs": [],
      "stateMutability": "nonpayable",
      "type": "function"
    },
    {
      "inputs": [
        {
          "internalType": "address",
          "name": "operator",
          "type": "address"
        },
        {
          "internalType": "bool",
          "name": "approved",
          "type": "bool"
        }
      ],
      "name": "setApprovalForAll",
      "outputs": [],
      "stateMutability": "nonpayable",
      "type": "function"
    },
    {
      "inputs": [
        {
          "internalType": "bytes4",
          "name": "interfaceId",
          "type": "bytes4"
        }
      ],
      "name": "supportsInterface",
      "outputs": [
        {
          "internalType": "bool",
          "name": "",
          "type": "bool"
        }
      ],
      "stateMutability": "view",
      "type": "function",
      "constant": true
    },
    {
      "inputs": [],
      "name": "symbol",
      "outputs": [
        {
          "internalType": "string",
          "name": "",
          "type": "string"
        }
      ],
      "stateMutability": "view",
      "type": "function",
      "constant": true
    },
    {
      "inputs": [
        {
          "internalType": "uint256",
          "name": "index",
          "type": "uint256"
        }
      ],
      "name": "tokenByIndex",
      "outputs": [
        {
          "internalType": "uint256",
          "name": "",
          "type": "uint256"
        }
      ],
      "stateMutability": "view",
      "type": "function",
      "constant": true
    },
    {
      "inputs": [
        {
          "internalType": "address",
          "name": "owner",
          "type": "address"
        },
        {
          "internalType": "uint256",
          "name": "index",
          "type": "uint256"
        }
      ],
      "name": "tokenOfOwnerByIndex",
      "outputs": [
        {
          "internalType": "uint256",
          "name": "",
          "type": "uint256"
        }
      ],
      "stateMutability": "view",
      "type": "function",
      "constant": true
    },
    {
      "inputs": [],
      "name": "totalSupply",
      "outputs": [
        {
          "internalType": "uint256",
          "name": "",
          "type": "uint256"
        }
      ],
      "stateMutability": "view",
      "type": "function",
      "constant": true
    },
    {
      "inputs": [
        {
          "internalType": "address",
          "name": "from",
          "type": "address"
        },
        {
          "internalType": "address",
          "name": "to",
          "type": "address"
        },
        {
          "internalType": "uint256",
          "name": "tokenId",
          "type": "uint256"
        }
      ],
      "name": "transferFrom",
      "outputs": [],
      "stateMutability": "nonpayable",
      "type": "function"
    },
    {
      "inputs": [
        {
          "internalType": "string",
          "name": "uri",
          "type": "string"
        }
      ],
      "name": "mint",
      "outputs": [
        {
          "internalType": "uint256",
          "name": "",
          "type": "uint256"
        }
      ],
      "stateMutability": "nonpayable",
      "type": "function"
    },
    {
      "inputs": [
        {
          "internalType": "uint256",
          "name": "tokenId",
          "type": "uint256"
        }
      ],
      "name": "tokenURI",
      "outputs": [
        {
          "internalType": "string",
          "name": "",
          "type": "string"
        }
      ],
      "stateMutability": "view",
      "type": "function",
      "constant": true
    },
    {
      "inputs": [
        {
          "internalType": "address",
          "name": "market",
          "type": "address"
        }
      ],
      "name": "setMarketplace",
      "outputs": [],
      "stateMutability": "nonpayable",
      "type": "function"
    }
  ],
  "bytecode": "0x60806040523480156200001157600080fd5b506040518060400160405280600881526020017f417274546f6b656e0000000000000000000000000000000000000000000000008152506040518060400160405280600481526020017f4152544b00000000000000000000000000000000000000000000000000000000815250816000908051906020019062000096929190620000b8565b508060019080519060200190620000af929190620000b8565b505050620001cc565b828054620000c69062000197565b90600052602060002090601f016020900481019282620000ea576000855562000136565b82601f106200010557805160ff191683800117855562000136565b8280016001018555821562000136579182015b828111156200013557825182559160200191906001019062000118565b5b50905062000145919062000149565b5090565b5b80821115620001645760008160009055506001016200014a565b5090565b7f4e487b7100000000000000000000000000000000000000000000000000000000600052602260045260246000fd5b60006002820490506001821680620001b057607f821691505b602082108103620001c657620001c562000168565b5b50919050565b61315180620001dc6000396000f3fe608060405234801561001057600080fd5b506004361061012c5760003560e01c80636352211e116100ad578063abc8c7af11610071578063abc8c7af14610369578063b88d4fde14610387578063c87b56dd146103a3578063d85d3d27146103d3578063e985e9c5146104035761012c565b80636352211e146102b357806370a08231146102e357806373ad6c2d1461031357806395d89b411461032f578063a22cb4651461034d5761012c565b806318160ddd116100f457806318160ddd146101fd57806323b872dd1461021b5780632f745c591461023757806342842e0e146102675780634f6ccce7146102835761012c565b806301ffc9a71461013157806306fdde0314610161578063081812fc1461017f578063095ea7b3146101af57806317b47cc4146101cb575b600080fd5b61014b60048036038101906101469190611f94565b610433565b6040516101589190611fdc565b60405180910390f35b6101696104ad565b6040516101769190612090565b60405180910390f35b610199600480360381019061019491906120e8565b61053f565b6040516101a69190612156565b60405180910390f35b6101c960048036038101906101c4919061219d565b6105c4565b005b6101e560048036038101906101e091906120e8565b6106db565b6040516101f4939291906121ec565b60405180910390f35b6102056107ad565b604051610212919061222a565b60405180910390f35b61023560048036038101906102309190612245565b6107ba565b005b610251600480360381019061024c919061219d565b61081a565b60405161025e919061222a565b60405180910390f35b610281600480360381019061027c9190612245565b6108bf565b005b61029d600480360381019061029891906120e8565b6108df565b6040516102aa919061222a565b60405180910390f35b6102cd60048036038101906102c891906120e8565b610950565b6040516102da9190612156565b60405180910390f35b6102fd60048036038101906102f89190612298565b610a01565b60405161030a919061222a565b60405180910390f35b61032d60048036038101906103289190612298565b610ab8565b005b610337610afc565b6040516103449190612090565b60405180910390f35b610367600480360381019061036291906122f1565b610b8e565b005b610371610ba4565b60405161037e9190612156565b60405180910390f35b6103a1600480360381019061039c9190612466565b610bca565b005b6103bd60048036038101906103b891906120e8565b610c2c565b6040516103ca9190612090565b60405180910390f35b6103ed60048036038101906103e8919061258a565b610d1c565b6040516103fa919061222a565b60405180910390f35b61041d600480360381019061041891906125d3565b610e2a565b60405161042a9190611fdc565b60405180910390f35b60007f780e9d63000000000000000000000000000000000000000000000000000000007bffffffffffffffffffffffffffffffffffffffffffffffffffffffff1916827bffffffffffffffffffffffffffffffffffffffffffffffffffffffff191614806104a657506104a582610ebe565b5b9050919050565b6060600080546104bc90612642565b80601f01602080910402602001604051908101604052809291908181526020018280546104e890612642565b80156105355780601f1061050a57610100808354040283529160200191610535565b820191906000526020600020905b81548152906001019060200180831161051857829003601f168201915b5050505050905090565b600061054a82610fa0565b610589576040517f08c379a0000000000000000000000000000000000000000000000000000000008152600401610580906126e5565b60405180910390fd5b6004600083815260200190815260200160002060009054906101000a900473ffffffffffffffffffffffffffffffffffffffff169050919050565b60006105cf82610950565b90508073ffffffffffffffffffffffffffffffffffffffff168373ffffffffffffffffffffffffffffffffffffffff160361063f576040517f08c379a000000000000000000000000000000000000000000000000000000000815260040161063690612777565b60405180910390fd5b8073ffffffffffffffffffffffffffffffffffffffff1661065e61100c565b73ffffffffffffffffffffffffffffffffffffffff16148061068d575061068c8161068761100c565b610e2a565b5b6106cc576040517f08c379a00000000000000000000000000000000000000000000000000000000081526004016106c390612809565b60405180910390fd5b6106d68383611014565b505050565b600c6020528060005260406000206000915090508060000154908060010160009054906101000a900473ffffffffffffffffffffffffffffffffffffffff169080600201805461072a90612642565b80601f016020809104026020016040519081016040528092919081815260200182805461075690612642565b80156107a35780601f10610778576101008083540402835291602001916107a3565b820191906000526020600020905b81548152906001019060200180831161078657829003601f168201915b5050505050905083565b6000600880549050905090565b6107cb6107c561100c565b826110cd565b61080a576040517f08c379a00000000000000000000000000000000000000000000000000000000081526004016108019061289b565b60405180910390fd5b6108158383836111ab565b505050565b600061082583610a01565b8210610866576040517f08c379a000000000000000000000000000000000000000000000000000000000815260040161085d9061292d565b60405180910390fd5b600660008473ffffffffffffffffffffffffffffffffffffffff1673ffffffffffffffffffffffffffffffffffffffff168152602001908152602001600020600083815260200190815260200160002054905092915050565b6108da83838360405180602001604052806000815250610bca565b505050565b60006108e96107ad565b821061092a576040517f08c379a0000000000000000000000000000000000000000000000000000000008152600401610921906129bf565b60405180910390fd5b6008828154811061093e5761093d6129df565b5b90600052602060002001549050919050565b6000806002600084815260200190815260200160002060009054906101000a900473ffffffffffffffffffffffffffffffffffffffff169050600073ffffffffffffffffffffffffffffffffffffffff168173ffffffffffffffffffffffffffffffffffffffff16036109f8576040517f08c379a00000000000000000000000000000000000000000000000000000000081526004016109ef90612a80565b60405180910390fd5b80915050919050565b60008073ffffffffffffffffffffffffffffffffffffffff168273ffffffffffffffffffffffffffffffffffffffff1603610a71576040517f08c379a0000000000000000000000000000000000000000000000000000000008152600401610a6890612b12565b60405180910390fd5b600360008373ffffffffffffffffffffffffffffffffffffffff1673ffffffffffffffffffffffffffffffffffffffff168152602001908152602001600020549050919050565b80600b60006101000a81548173ffffffffffffffffffffffffffffffffffffffff021916908373ffffffffffffffffffffffffffffffffffffffff16021790555050565b606060018054610b0b90612642565b80601f0160208091040260200160405190810160405280929190818152602001828054610b3790612642565b8015610b845780601f10610b5957610100808354040283529160200191610b84565b820191906000526020600020905b815481529060010190602001808311610b6757829003601f168201915b5050505050905090565b610ba0610b9961100c565b8383611411565b5050565b600b60009054906101000a900473ffffffffffffffffffffffffffffffffffffffff1681565b610bdb610bd561100c565b836110cd565b610c1a576040517f08c379a0000000000000000000000000000000000000000000000000000000008152600401610c119061289b565b60405180910390fd5b610c268484848461157d565b50505050565b6060610c3782610fa0565b610c76576040517f08c379a0000000000000000000000000000000000000000000000000000000008152600401610c6d90612ba4565b60405180910390fd5b600c60008381526020019081526020016000206002018054610c9790612642565b80601f0160208091040260200160405190810160405280929190818152602001828054610cc390612642565b8015610d105780601f10610ce557610100808354040283529160200191610d10565b820191906000526020600020905b815481529060010190602001808311610cf357829003601f168201915b50505050509050919050565b6000610d28600a6115d9565b6000610d34600a6115ef565b9050610d4033826115fd565b610d6c600b60009054906101000a900473ffffffffffffffffffffffffffffffffffffffff16826105c4565b60405180606001604052808281526020013373ffffffffffffffffffffffffffffffffffffffff16815260200184815250600c60008381526020019081526020016000206000820151816000015560208201518160010160006101000a81548173ffffffffffffffffffffffffffffffffffffffff021916908373ffffffffffffffffffffffffffffffffffffffff1602179055506040820151816002019080519060200190610e1d929190611e85565b5090505080915050919050565b6000600560008473ffffffffffffffffffffffffffffffffffffffff1673ffffffffffffffffffffffffffffffffffffffff16815260200190815260200160002060008373ffffffffffffffffffffffffffffffffffffffff1673ffffffffffffffffffffffffffffffffffffffff16815260200190815260200160002060009054906101000a900460ff16905092915050565b60007f80ac58cd000000000000000000000000000000000000000000000000000000007bffffffffffffffffffffffffffffffffffffffffffffffffffffffff1916827bffffffffffffffffffffffffffffffffffffffffffffffffffffffff19161480610f8957507f5b5e139f000000000000000000000000000000000000000000000000000000007bffffffffffffffffffffffffffffffffffffffffffffffffffffffff1916827bffffffffffffffffffffffffffffffffffffffffffffffffffffffff1916145b80610f995750610f988261161b565b5b9050919050565b60008073ffffffffffffffffffffffffffffffffffffffff166002600084815260200190815260200160002060009054906101000a900473ffffffffffffffffffffffffffffffffffffffff1673ffffffffffffffffffffffffffffffffffffffff1614159050919050565b600033905090565b816004600083815260200190815260200160002060006101000a81548173ffffffffffffffffffffffffffffffffffffffff021916908373ffffffffffffffffffffffffffffffffffffffff160217905550808273ffffffffffffffffffffffffffffffffffffffff1661108783610950565b73ffffffffffffffffffffffffffffffffffffffff167f8c5be1e5ebec7d5bd14f71427d1e84f3dd0314c0f7b2291e5b200ac8c7c3b92560405160405180910390a45050565b60006110d882610fa0565b611117576040517f08c379a000000000000000000000000000000000000000000000000000000000815260040161110e90612c36565b60405180910390fd5b600061112283610950565b90508073ffffffffffffffffffffffffffffffffffffffff168473ffffffffffffffffffffffffffffffffffffffff16148061116457506111638185610e2a565b5b806111a257508373ffffffffffffffffffffffffffffffffffffffff1661118a8461053f565b73ffffffffffffffffffffffffffffffffffffffff16145b91505092915050565b8273ffffffffffffffffffffffffffffffffffffffff166111cb82610950565b73ffffffffffffffffffffffffffffffffffffffff1614611221576040517f08c379a000000000000000000000000000000000000000000000000000000000815260040161121890612cc8565b60405180910390fd5b600073ffffffffffffffffffffffffffffffffffffffff168273ffffffffffffffffffffffffffffffffffffffff1603611290576040517f08c379a000000000000000000000000000000000000000000000000000000000815260040161128790612d5a565b60405180910390fd5b61129b838383611685565b6112a6600082611014565b6001600360008573ffffffffffffffffffffffffffffffffffffffff1673ffffffffffffffffffffffffffffffffffffffff16815260200190815260200160002060008282546112f69190612da9565b925050819055506001600360008473ffffffffffffffffffffffffffffffffffffffff1673ffffffffffffffffffffffffffffffffffffffff168152602001908152602001600020600082825461134d9190612ddd565b92505081905550816002600083815260200190815260200160002060006101000a81548173ffffffffffffffffffffffffffffffffffffffff021916908373ffffffffffffffffffffffffffffffffffffffff160217905550808273ffffffffffffffffffffffffffffffffffffffff168473ffffffffffffffffffffffffffffffffffffffff167fddf252ad1be2c89b69c2b068fc378daa952ba7f163c4a11628f55a4df523b3ef60405160405180910390a461140c838383611797565b505050565b8173ffffffffffffffffffffffffffffffffffffffff168373ffffffffffffffffffffffffffffffffffffffff160361147f576040517f08c379a000000000000000000000000000000000000000000000000000000000815260040161147690612e7f565b60405180910390fd5b80600560008573ffffffffffffffffffffffffffffffffffffffff1673ffffffffffffffffffffffffffffffffffffffff16815260200190815260200160002060008473ffffffffffffffffffffffffffffffffffffffff1673ffffffffffffffffffffffffffffffffffffffff16815260200190815260200160002060006101000a81548160ff0219169083151502179055508173ffffffffffffffffffffffffffffffffffffffff168373ffffffffffffffffffffffffffffffffffffffff167f17307eab39ab6107e8899845ad3d59bd9653f200f220920489ca2b5937696c31836040516115709190611fdc565b60405180910390a3505050565b6115888484846111ab565b6115948484848461179c565b6115d3576040517f08c379a00000000000000000000000000000000000000000000000000000000081526004016115ca90612f11565b60405180910390fd5b50505050565b6001816000016000828254019250508190555050565b600081600001549050919050565b611617828260405180602001604052806000815250611923565b5050565b60007f01ffc9a7000000000000000000000000000000000000000000000000000000007bffffffffffffffffffffffffffffffffffffffffffffffffffffffff1916827bffffffffffffffffffffffffffffffffffffffffffffffffffffffff1916149050919050565b61169083838361197e565b600073ffffffffffffffffffffffffffffffffffffffff168373ffffffffffffffffffffffffffffffffffffffff16036116d2576116cd81611983565b611711565b8173ffffffffffffffffffffffffffffffffffffffff168373ffffffffffffffffffffffffffffffffffffffff16146117105761170f83826119cc565b5b5b600073ffffffffffffffffffffffffffffffffffffffff168273ffffffffffffffffffffffffffffffffffffffff16036117535761174e81611b39565b611792565b8273ffffffffffffffffffffffffffffffffffffffff168273ffffffffffffffffffffffffffffffffffffffff1614611791576117908282611c0a565b5b5b505050565b505050565b60006117bd8473ffffffffffffffffffffffffffffffffffffffff16611c89565b15611916578373ffffffffffffffffffffffffffffffffffffffff1663150b7a026117e661100c565b8786866040518563ffffffff1660e01b81526004016118089493929190612f86565b6020604051808303816000875af192505050801561184457506040513d601f19601f820116820180604052508101906118419190612fe7565b60015b6118c6573d8060008114611874576040519150601f19603f3d011682016040523d82523d6000602084013e611879565b606091505b5060008151036118be576040517f08c379a00000000000000000000000000000000000000000000000000000000081526004016118b590612f11565b60405180910390fd5b805181602001fd5b63150b7a0260e01b7bffffffffffffffffffffffffffffffffffffffffffffffffffffffff1916817bffffffffffffffffffffffffffffffffffffffffffffffffffffffff19161491505061191b565b600190505b949350505050565b61192d8383611cac565b61193a600084848461179c565b611979576040517f08c379a000000000000000000000000000000000000000000000000000000000815260040161197090612f11565b60405180910390fd5b505050565b505050565b6008805490506009600083815260200190815260200160002081905550600881908060018154018082558091505060019003906000526020600020016000909190919091505550565b600060016119d984610a01565b6119e39190612da9565b9050600060076000848152602001908152602001600020549050818114611ac8576000600660008673ffffffffffffffffffffffffffffffffffffffff1673ffffffffffffffffffffffffffffffffffffffff168152602001908152602001600020600084815260200190815260200160002054905080600660008773ffffffffffffffffffffffffffffffffffffffff1673ffffffffffffffffffffffffffffffffffffffff168152602001908152602001600020600084815260200190815260200160002081905550816007600083815260200190815260200160002081905550505b6007600084815260200190815260200160002060009055600660008573ffffffffffffffffffffffffffffffffffffffff1673ffffffffffffffffffffffffffffffffffffffff16815260200190815260200160002060008381526020019081526020016000206000905550505050565b60006001600880549050611b4d9190612da9565b9050600060096000848152602001908152602001600020549050600060088381548110611b7d57611b7c6129df565b5b906000526020600020015490508060088381548110611b9f57611b9e6129df565b5b906000526020600020018190555081600960008381526020019081526020016000208190555060096000858152602001908152602001600020600090556008805480611bee57611bed613014565b5b6001900381819060005260206000200160009055905550505050565b6000611c1583610a01565b905081600660008573ffffffffffffffffffffffffffffffffffffffff1673ffffffffffffffffffffffffffffffffffffffff168152602001908152602001600020600083815260200190815260200160002081905550806007600084815260200190815260200160002081905550505050565b6000808273ffffffffffffffffffffffffffffffffffffffff163b119050919050565b600073ffffffffffffffffffffffffffffffffffffffff168273ffffffffffffffffffffffffffffffffffffffff1603611d1b576040517f08c379a0000000000000000000000000000000000000000000000000000000008152600401611d129061308f565b60405180910390fd5b611d2481610fa0565b15611d64576040517f08c379a0000000000000000000000000000000000000000000000000000000008152600401611d5b906130fb565b60405180910390fd5b611d7060008383611685565b6001600360008473ffffffffffffffffffffffffffffffffffffffff1673ffffffffffffffffffffffffffffffffffffffff1681526020019081526020016000206000828254611dc09190612ddd565b92505081905550816002600083815260200190815260200160002060006101000a81548173ffffffffffffffffffffffffffffffffffffffff021916908373ffffffffffffffffffffffffffffffffffffffff160217905550808273ffffffffffffffffffffffffffffffffffffffff16600073ffffffffffffffffffffffffffffffffffffffff167fddf252ad1be2c89b69c2b068fc378daa952ba7f163c4a11628f55a4df523b3ef60405160405180910390a4611e8160008383611797565b5050565b828054611e9190612642565b90600052602060002090601f016020900481019282611eb35760008555611efa565b82601f10611ecc57805160ff1916838001178555611efa565b82800160010185558215611efa579182015b82811115611ef9578251825591602001919060010190611ede565b5b509050611f079190611f0b565b5090565b5b80821115611f24576000816000905550600101611f0c565b5090565b6000604051905090565b600080fd5b600080fd5b60007fffffffff0000000000000000000000000000000000000000000000000000000082169050919050565b611f7181611f3c565b8114611f7c57600080fd5b50565b600081359050611f8e81611f68565b92915050565b600060208284031215611faa57611fa9611f32565b5b6000611fb884828501611f7f565b91505092915050565b60008115159050919050565b611fd681611fc1565b82525050565b6000602082019050611ff16000830184611fcd565b92915050565b600081519050919050565b600082825260208201905092915050565b60005b83811015612031578082015181840152602081019050612016565b83811115612040576000848401525b50505050565b6000601f19601f8301169050919050565b600061206282611ff7565b61206c8185612002565b935061207c818560208601612013565b61208581612046565b840191505092915050565b600060208201905081810360008301526120aa8184612057565b905092915050565b6000819050919050565b6120c5816120b2565b81146120d057600080fd5b50565b6000813590506120e2816120bc565b92915050565b6000602082840312156120fe576120fd611f32565b5b600061210c848285016120d3565b91505092915050565b600073ffffffffffffffffffffffffffffffffffffffff82169050919050565b600061214082612115565b9050919050565b61215081612135565b82525050565b600060208201905061216b6000830184612147565b92915050565b61217a81612135565b811461218557600080fd5b50565b60008135905061219781612171565b92915050565b600080604083850312156121b4576121b3611f32565b5b60006121c285828601612188565b92505060206121d3858286016120d3565b9150509250929050565b6121e6816120b2565b82525050565b600060608201905061220160008301866121dd565b61220e6020830185612147565b81810360408301526122208184612057565b9050949350505050565b600060208201905061223f60008301846121dd565b92915050565b60008060006060848603121561225e5761225d611f32565b5b600061226c86828701612188565b935050602061227d86828701612188565b925050604061228e868287016120d3565b9150509250925092565b6000602082840312156122ae576122ad611f32565b5b60006122bc84828501612188565b91505092915050565b6122ce81611fc1565b81146122d957600080fd5b50565b6000813590506122eb816122c5565b92915050565b6000806040838503121561230857612307611f32565b5b600061231685828601612188565b9250506020612327858286016122dc565b9150509250929050565b600080fd5b600080fd5b7f4e487b7100000000000000000000000000000000000000000000000000000000600052604160045260246000fd5b61237382612046565b810181811067ffffffffffffffff821117156123925761239161233b565b5b80604052505050565b60006123a5611f28565b90506123b1828261236a565b919050565b600067ffffffffffffffff8211156123d1576123d061233b565b5b6123da82612046565b9050602081019050919050565b82818337600083830152505050565b6000612409612404846123b6565b61239b565b90508281526020810184848401111561242557612424612336565b5b6124308482856123e7565b509392505050565b600082601f83011261244d5761244c612331565b5b813561245d8482602086016123f6565b91505092915050565b600080600080608085870312156124805761247f611f32565b5b600061248e87828801612188565b945050602061249f87828801612188565b93505060406124b0878288016120d3565b925050606085013567ffffffffffffffff8111156124d1576124d0611f37565b5b6124dd87828801612438565b91505092959194509250565b600067ffffffffffffffff8211156125045761250361233b565b5b61250d82612046565b9050602081019050919050565b600061252d612528846124e9565b61239b565b90508281526020810184848401111561254957612548612336565b5b6125548482856123e7565b509392505050565b600082601f83011261257157612570612331565b5b813561258184826020860161251a565b91505092915050565b6000602082840312156125a05761259f611f32565b5b600082013567ffffffffffffffff8111156125be576125bd611f37565b5b6125ca8482850161255c565b91505092915050565b600080604083850312156125ea576125e9611f32565b5b60006125f885828601612188565b925050602061260985828601612188565b9150509250929050565b7f4e487b7100000000000000000000000000000000000000000000000000000000600052602260045260246000fd5b6000600282049050600182168061265a57607f821691505b60208210810361266d5761266c612613565b5b50919050565b7f4552433732313a20617070726f76656420717565727920666f72206e6f6e657860008201527f697374656e7420746f6b656e0000000000000000000000000000000000000000602082015250565b60006126cf602c83612002565b91506126da82612673565b604082019050919050565b600060208201905081810360008301526126fe816126c2565b9050919050565b7f4552433732313a20617070726f76616c20746f2063757272656e74206f776e6560008201527f7200000000000000000000000000000000000000000000000000000000000000602082015250565b6000612761602183612002565b915061276c82612705565b604082019050919050565b6000602082019050818103600083015261279081612754565b9050919050565b7f4552433732313a20617070726f76652063616c6c6572206973206e6f74206f7760008201527f6e6572206e6f7220617070726f76656420666f7220616c6c0000000000000000602082015250565b60006127f3603883612002565b91506127fe82612797565b604082019050919050565b60006020820190508181036000830152612822816127e6565b9050919050565b7f4552433732313a207472616e736665722063616c6c6572206973206e6f74206f60008201527f776e6572206e6f7220617070726f766564000000000000000000000000000000602082015250565b6000612885603183612002565b915061289082612829565b604082019050919050565b600060208201905081810360008301526128b481612878565b9050919050565b7f455243373231456e756d657261626c653a206f776e657220696e646578206f7560008201527f74206f6620626f756e6473000000000000000000000000000000000000000000602082015250565b6000612917602b83612002565b9150612922826128bb565b604082019050919050565b600060208201905081810360008301526129468161290a565b9050919050565b7f455243373231456e756d657261626c653a20676c6f62616c20696e646578206f60008201527f7574206f6620626f756e64730000000000000000000000000000000000000000602082015250565b60006129a9602c83612002565b91506129b48261294d565b604082019050919050565b600060208201905081810360008301526129d88161299c565b9050919050565b7f4e487b7100000000000000000000000000000000000000000000000000000000600052603260045260246000fd5b7f4552433732313a206f776e657220717565727920666f72206e6f6e657869737460008201527f656e7420746f6b656e0000000000000000000000000000000000000000000000602082015250565b6000612a6a602983612002565b9150612a7582612a0e565b604082019050919050565b60006020820190508181036000830152612a9981612a5d565b9050919050565b7f4552433732313a2062616c616e636520717565727920666f7220746865207a6560008201527f726f206164647265737300000000000000000000000000000000000000000000602082015250565b6000612afc602a83612002565b9150612b0782612aa0565b604082019050919050565b60006020820190508181036000830152612b2b81612aef565b9050919050565b7f45524337323155524953746f726167653a2055524920717565727920666f722060008201527f6e6f6e6578697374656e7420746f6b656e000000000000000000000000000000602082015250565b6000612b8e603183612002565b9150612b9982612b32565b604082019050919050565b60006020820190508181036000830152612bbd81612b81565b9050919050565b7f4552433732313a206f70657261746f7220717565727920666f72206e6f6e657860008201527f697374656e7420746f6b656e0000000000000000000000000000000000000000602082015250565b6000612c20602c83612002565b9150612c2b82612bc4565b604082019050919050565b60006020820190508181036000830152612c4f81612c13565b9050919050565b7f4552433732313a207472616e736665722066726f6d20696e636f72726563742060008201527f6f776e6572000000000000000000000000000000000000000000000000000000602082015250565b6000612cb2602583612002565b9150612cbd82612c56565b604082019050919050565b60006020820190508181036000830152612ce181612ca5565b9050919050565b7f4552433732313a207472616e7366657220746f20746865207a65726f2061646460008201527f7265737300000000000000000000000000000000000000000000000000000000602082015250565b6000612d44602483612002565b9150612d4f82612ce8565b604082019050919050565b60006020820190508181036000830152612d7381612d37565b9050919050565b7f4e487b7100000000000000000000000000000000000000000000000000000000600052601160045260246000fd5b6000612db4826120b2565b9150612dbf836120b2565b925082821015612dd257612dd1612d7a565b5b828203905092915050565b6000612de8826120b2565b9150612df3836120b2565b9250827fffffffffffffffffffffffffffffffffffffffffffffffffffffffffffffffff03821115612e2857612e27612d7a565b5b828201905092915050565b7f4552433732313a20617070726f766520746f2063616c6c657200000000000000600082015250565b6000612e69601983612002565b9150612e7482612e33565b602082019050919050565b60006020820190508181036000830152612e9881612e5c565b9050919050565b7f4552433732313a207472616e7366657220746f206e6f6e20455243373231526560008201527f63656976657220696d706c656d656e7465720000000000000000000000000000602082015250565b6000612efb603283612002565b9150612f0682612e9f565b604082019050919050565b60006020820190508181036000830152612f2a81612eee565b9050919050565b600081519050919050565b600082825260208201905092915050565b6000612f5882612f31565b612f628185612f3c565b9350612f72818560208601612013565b612f7b81612046565b840191505092915050565b6000608082019050612f9b6000830187612147565b612fa86020830186612147565b612fb560408301856121dd565b8181036060830152612fc78184612f4d565b905095945050505050565b600081519050612fe181611f68565b92915050565b600060208284031215612ffd57612ffc611f32565b5b600061300b84828501612fd2565b91505092915050565b7f4e487b7100000000000000000000000000000000000000000000000000000000600052603160045260246000fd5b7f4552433732313a206d696e7420746f20746865207a65726f2061646472657373600082015250565b6000613079602083612002565b915061308482613043565b602082019050919050565b600060208201905081810360008301526130a88161306c565b9050919050565b7f4552433732313a20746f6b656e20616c7265616479206d696e74656400000000600082015250565b60006130e5601c83612002565b91506130f0826130af565b602082019050919050565b60006020820190508181036000830152613114816130d8565b905091905056fea264697066735822122075fe5dd54abe26b3266bdcc90ff5e85276393c835310e1d85d8b433878c3dbb464736f6c634300080d0033",
  "immutableReferences": {},
  "source": "// SPDX-License-Identifier: MIT\npragma solidity ^0.8.0;\n\nimport \"@openzeppelin/contracts/token/ERC721/ERC721.sol\";\nimport \"@openzeppelin/contracts/token/ERC721/extensions/ERC721Enumerable.sol\";\nimport \"@openzeppelin/contracts/token/ERC721/extensions/ERC721URIStorage.sol\";\nimport \"@openzeppelin/contracts/utils/Counters.sol\";\n\ncontract ArtToken is ERC721Enumerable{\n  using Counters for Counters.Counter;\n\n  Counters.Counter private _tokenIds;\n  address public marketplace;\n\n  struct Item {\n    uint256 id;\n    address creator;\n    string uri;//metadata url\n  }\n\n  mapping(uint256 => Item) public Items; //id => Item\n\n  constructor () ERC721(\"ArtToken\", \"ARTK\") {}\n\n  function mint(string memory uri) public returns (uint256){\n    _tokenIds.increment();\n    uint256 newItemId = _tokenIds.current();\n    _safeMint(msg.sender, newItemId);\n    approve(marketplace, newItemId);\n\n    Items[newItemId] = Item({\n      id: newItemId, \n      creator: msg.sender,\n      uri: uri\n    });\n\n    return newItemId;\n  }\n\n  function tokenURI(uint256 tokenId) public view override returns (string memory) {\n    require(_exists(tokenId), \"ERC721URIStorage: URI query for nonexistent token\");\n    return Items[tokenId].uri;\n  }\n\n  function setMarketplace(address market) public {\n    //require(msg.sender ==);\n    marketplace = market;\n  }\n\n}",
  "sourcePath": "/Users/dallolmac/NFT-Marketplace/contracts/ArtToken.sol",
  "compiler": {
    "name": "solc",
    "version": "0.8.13+commit.abaa5c0e.Emscripten.clang"
  },
  "schemaVersion": "3.4.7",
  "updatedAt": "2022-05-08T00:54:59.287Z",
  "networkType": "ethereum",
  "devdoc": {
    "kind": "dev",
    "methods": {
      "approve(address,uint256)": {
        "details": "See {IERC721-approve}."
      },
      "balanceOf(address)": {
        "details": "See {IERC721-balanceOf}."
      },
      "getApproved(uint256)": {
        "details": "See {IERC721-getApproved}."
      },
      "isApprovedForAll(address,address)": {
        "details": "See {IERC721-isApprovedForAll}."
      },
      "name()": {
        "details": "See {IERC721Metadata-name}."
      },
      "ownerOf(uint256)": {
        "details": "See {IERC721-ownerOf}."
      },
      "safeTransferFrom(address,address,uint256)": {
        "details": "See {IERC721-safeTransferFrom}."
      },
      "safeTransferFrom(address,address,uint256,bytes)": {
        "details": "See {IERC721-safeTransferFrom}."
      },
      "setApprovalForAll(address,bool)": {
        "details": "See {IERC721-setApprovalForAll}."
      },
      "supportsInterface(bytes4)": {
        "details": "See {IERC165-supportsInterface}."
      },
      "symbol()": {
        "details": "See {IERC721Metadata-symbol}."
      },
      "tokenByIndex(uint256)": {
        "details": "See {IERC721Enumerable-tokenByIndex}."
      },
      "tokenOfOwnerByIndex(address,uint256)": {
        "details": "See {IERC721Enumerable-tokenOfOwnerByIndex}."
      },
      "tokenURI(uint256)": {
        "details": "See {IERC721Metadata-tokenURI}."
      },
      "totalSupply()": {
        "details": "See {IERC721Enumerable-totalSupply}."
      },
      "transferFrom(address,address,uint256)": {
        "details": "See {IERC721-transferFrom}."
      }
    },
    "version": 1
  },
  "userdoc": {
    "kind": "user",
    "methods": {},
    "version": 1
  }
}